:020000040800F2
:10000000002000207D150008C9150008C91500084A
:1000100000000000000000000000000000000000E0
:10002000000000000000000000000000C9150008EA
:100030000000000000000000C915000805150008B8
:10004000C9150008C9150008C9150008C915000818
:10005000C9150008C9150008C9150008C915000808
:10006000C9150008C9150008C9150008C9150008F8
:10007000C9150008C9150008C9150008C9150008E8
:10008000C9150008C915000800000000C9150008BE
:10009000C9150008C9150008C9150008C9150008C8
:1000A000C9150008C9150008C9150008C9150008B8
:1000B000C915000800000000C91500080000000074
:1000C0005FF808F180B582B000AF78600A1CFB1CB5
:1000D0001A70FB1C1B78002B06D0084B074A51698D
:1000E0007A680A435A6106E0044B044A5269796807
:1000F000C9430A405A61BD4602B080BD00100240AB
:1001000080B582B000AF78600A1CFB1C1A70FB1C23
:100110001B78002B06D0084B074A91697A680A437E
:100120009A6106E0044B044A92697968C9430A401F
:100130009A61BD4602B080BD0010024090B585B006
:1001400000AF021C3960BB1D1A800D23FB183A68F2
:1001500092781A700C23FB183A68D2781A700B2325
:10016000FB183A6812781A700D23FB1819780B23C4
:10017000FB181B78DA43131C9B009B1880339942B1
:100180000EDC0C23FB181A780B23FB181B780F21AD
:10019000CB1ADB009A4203DCBB1D1B881F2B01D846
:1001A000FF2342E1BB1DBA1D1288203A1A80BA1DF6
:1001B000BB1D1B88191C8900CB1813800B23FB184F
:1001C0001B78012B60D0022B00D1BCE0002B00D0AB
:1001D0001AE10D23FB181B780433DAB20C23FB1849
:1001E0001B780733DCB20D23FB1819780C23FB189E
:1001F0001B78081C191C231C00F060FF0E23FB1841
:1002000000221A703AE00F23FB1800221A7029E02E
:100210000F23FB181B78042B17D8BB1D1A880F233C
:10022000FB181B78D318834AD35C1A1C0E23FB18C7
:100230001B781A41131C0122134006D03B68DB884F
:10024000181C002100F0F6FE05E03B681B89181C15
:10025000002100F0EFFE0F23FB181A780F23FB1884
:1002600001321A700F23FB181B78042BD0D90E23F0
:10027000FB181A780E23FB1801321A700E23FB1894
:100280001B78072BBFD9BFE00D23FB181B78093360
:10029000DAB20C23FB181B780F33DCB20D23FB18EA
:1002A00019780C23FB181B78081C191C231C00F060
:1002B00005FF0E23FB1800221A703EE00F23FB18E7
:1002C00000221A702DE00F23FB181B78092B1BD876
:1002D000BB1D1B880F22BA1812785208D2B29B1885
:1002E000544AD35C1A1C0E23FB181B785B08DBB244
:1002F0001A41131C0122134006D03B68DB88181CEE
:10030000002100F097FE05E03B681B89181C0021C6
:1003100000F090FE0F23FB181A780F23FB18013210
:100320001A700F23FB181B78092BCCD90E23FB184E
:100330001A780E23FB1801321A700E23FB181B7853
:100340000F2BBBD960E00D23FB181B780E33DAB2FC
:100350000C23FB181B781733DCB20D23FB1819781C
:100360000C23FB181B78081C191C231C00F0A6FE8C
:100370000E23FB1800221A7040E00F23FB18002206
:100380001A702FE00F23FB181B780E2B1DD8BB1DF6
:100390001A880F23FB181B7856214B431B12D318C6
:1003A000244AD35C191C0E23FB181B785622534396
:1003B0001B1219410B1C0122134006D03B68DB883D
:1003C000181C002100F036FE05E03B681B89181C54
:1003D000002100F02FFE0F23FB181A780F23FB18C3
:1003E00001321A700F23FB181B780E2BCAD90E236B
:1003F000FB181A780E23FB1801321A700E23FB1813
:100400001B78172BB9D9C0460B23FB181B78013377
:10041000DBB21A1C9200D318DAB20D23FB181B783A
:10042000D318DAB23B689A7000235BB2181CBD4641
:1004300005B090BDAC26000880B584B000AF7860F0
:1004400039600E23FB183A6892781A700D23FB1856
:100450003A68D2781A700C23FB183A6812781A702E
:100460007B68181C02F0EEF8021C0B23FB181A70B4
:100470000C23FB181B78012B3AD0022B6CD0002BDD
:1004800000D09CE00E23FB1819780B23FB181A7878
:10049000131C9B079B1A9B009B1A8033994204DC18
:1004A0000D23FB181B78782B01D9FF2388E00F233D
:1004B000FB1800221A7012E00F23FB181B787A68D1
:1004C000D3181B789AB23B68101C191CFFF736FE34
:1004D0000F23FB181A780F23FB1801321A700F2311
:1004E000FA180B23FB1812781B789A42E4D366E0C3
:1004F0000E23FB181A780B23FB181B780A2149429C
:100500004B4380339A4204DC0D23FB181B78702B7D
:1005100001D9FF2354E00F23FB1800221A7012E0C8
:100520000F23FB181B787A68D3181B789AB23B68A4
:10053000101C191CFFF702FE0F23FB181A780F235B
:10054000FB1801321A700F23FA180B23FB181278CC
:100550001B789A42E4D332E00E23FB181A780B235F
:10056000FB181B78191C1B01CB1A80339A4204DC40
:100570000D23FB181B78682B01D9FF2320E00F23E4
:10058000FB1800221A7012E00F23FB181B787A6800
:10059000D3181B789AB23B68101C191CFFF7CEFDCC
:1005A0000F23FB181A780F23FB1801321A700F2340
:1005B000FA180B23FB1812781B789A42E4D3002315
:1005C0005BB2181CBD4604B080BDC04680B588B083
:1005D00000AF786039601E23FB1800221A701B23BD
:1005E000FB183A6892781A701A23FB183A68D27886
:1005F0001A701923FB183A6812781A701C23FB181A
:100600003A6812791A701F23FB1800221A700DE045
:100610001F23FB181B780C22BA180021D1541F236A
:10062000FB181A781F23FB1801321A701F23FB18BE
:100630001B78092BECD97B68002B07DA7B685B42BF
:100640007B601D23FB1801221A7006E07B68002BDB
:1006500003DD1D23FB1800221A707B68092B07DDC0
:100660001C23FB181B78013BDAB21C23FB181A7001
:100670007B68632B07DD1C23FB181B78023BDAB277
:100680001C23FB181A707B68D14A934207DD1C2398
:10069000FB181B78033BDAB21C23FB181A707B682B
:1006A000CC4A934207DD1C23FB181B78043BDAB2CB
:1006B0001C23FB181A707B68C74A934207DD1C2372
:1006C000FB181B78053BDAB21C23FB181A707B68F9
:1006D000C24A934207DD1C23FB181B78063BDAB2A3
:1006E0001C23FB181A707B68BD4A934207DD1C234C
:1006F000FB181B78073BDAB21C23FB181A701C236B
:10070000FB181B787F2B03D91C23FB1800221A70BF
:100710007B68092B0BDC7B68DBB23033DAB20C234D
:10072000FB181A701E23FB1801221A70F7E27B686F
:10073000632B1CDC7B68181C0A2101F067FA031C80
:10074000DBB23033DAB20C23FB181A707B68181C4A
:100750000A2101F041FB0B1CDBB23033DAB20C236F
:10076000FB185A701E23FB1802221A70D7E27B680E
:10077000974A93422DDC7B68181C642101F046FAED
:10078000031CDBB23033DAB20C23FB181A707B681F
:10079000181C0A2101F03AFA031C181C0A2101F066
:1007A0001BFB0B1CDBB23033DAB20C23FB185A7084
:1007B0007B68181C0A2101F00FFB0B1CDBB23033E5
:1007C000DAB20C23FB189A701E23FB1803221A704E
:1007D000A5E27B687F4A93423FDC7B68181CFA23C2
:1007E000990001F013FA031CDBB23033DAB20C23A8
:1007F000FB181A707B68181C642101F007FA031CAF
:10080000181C0A2101F0E8FA0B1CDBB23033DAB213
:100810000C23FB185A707B68181C0A2101F0F6F9AA
:10082000031C181C0A2101F0D7FA0B1CDBB2303371
:10083000DAB20C23FB189A707B68181C0A2101F0AD
:10084000CBFA0B1CDBB23033DAB20C23FB18DA70B4
:100850001E23FB1804221A7061E27B685E4A9342F1
:1008600050DC7B68181C5F4901F0D0F9031CDBB237
:100870003033DAB20C23FB181A707B68181CFA2389
:10088000990001F0C3F9031C181C0A2101F0A4FA15
:100890000B1CDBB23033DAB20C23FB185A707B68C6
:1008A000181C642101F0B2F9031C181C0A2101F084
:1008B00093FA0B1CDBB23033DAB20C23FB189A70BC
:1008C0007B68181C0A2101F0A1F9031C181C0A21DD
:1008D00001F082FA0B1CDBB23033DAB20C23FB18C6
:1008E000DA707B68181C0A2101F076FA0B1CDBB267
:1008F0003033DAB20C23FB181A711E23FB180522C1
:100900001A700CE27B68354A93426FDC7B68181CD6
:10091000354901F07BF9031CDBB23033DAB20C232A
:10092000FB181A707B68181C2E4901F06FF9031C24
:10093000181C0A2101F050FA0B1CDBB23033DAB27A
:100940000C23FB185A707B68181CFA23990001F0DD
:100950005DF9031C181C0A2101F03EFA0B1CDBB2E6
:100960003033DAB20C23FB189A707B68181C6421B0
:1009700001F04CF9031C181C0A2101F02DFA0B1C84
:10098000DBB23033DAB20C23FB18DA707B68181C48
:100990000A2101F03BF9031C181C0A2101F01CFA82
:1009A0000B1CDBB23033DAB20C23FB181A717B68F4
:1009B000181C0A2101F010FA0B1CDBB23033DAB23A
:1009C0000C23FB185A711E23FB1806221A70A6E18D
:1009D000E70300000F2700009F8601003F420F0041
:1009E0007F96980010270000A08601007B68EF4AE0
:1009F000934272DC7B68181CED4901F007F9031C77
:100A0000DBB23033DAB20C23FB181A707B68181C87
:100A1000E84901F0FBF8031C181C0A2101F0DCF97D
:100A20000B1CDBB23033DAB20C23FB185A707B6834
:100A3000181CE14901F0EAF8031C181C0A2101F016
:100A4000CBF90B1CDBB23033DAB20C23FB189A70F3
:100A50007B68181CFA23990001F0D8F8031C181CB5
:100A60000A2101F0B9F90B1CDBB23033DAB20C23E6
:100A7000FB18DA707B68181C642101F0C7F8031CAE
:100A8000181C0A2101F0A8F90B1CDBB23033DAB2D2
:100A90000C23FB181A717B68181C0A2101F0B6F8A8
:100AA000031C181C0A2101F097F90B1CDBB2303330
:100AB000DAB20C23FB185A717B68181C0A2101F06A
:100AC0008BF90B1CDBB23033DAB20C23FB189A71B2
:100AD0001E23FB1807221A7021E17B68B74A934254
:100AE00000DD83E07B68181CB54901F08FF8031C1A
:100AF000DBB23033DAB20C23FB181A707B68181C97
:100B0000AB4901F083F8031C181C0A2101F064F9B9
:100B10000B1CDBB23033DAB20C23FB185A707B6843
:100B2000181CA44901F072F8031C181C0A2101F0DA
:100B300053F90B1CDBB23033DAB20C23FB189A707A
:100B40007B68181C9C4901F061F8031C181C0A21E1
:100B500001F042F90B1CDBB23033DAB20C23FB1884
:100B6000DA707B68181CFA23990001F04FF8031C17
:100B7000181C0A2101F030F90B1CDBB23033DAB259
:100B80000C23FB181A717B68181C642101F03EF8D5
:100B9000031C181C0A2101F01FF90B1CDBB23033B7
:100BA000DAB20C23FB185A717B68181C0A2101F079
:100BB0002DF8031C181C0A2101F00EF90B1CDBB2E6
:100BC0003033DAB20C23FB189A717B68181C0A21A7
:100BD00001F002F90B1CDBB23033DAB20C23FB1844
:100BE000DA711E23FB1808221A7098E07B68754A98
:100BF000934200DD93E07B68181C734901F006F80E
:100C0000031CDBB23033DAB20C23FB181A707B689A
:100C1000181C6B4900F0FAFF031C181C0A2101F094
:100C2000DBF80B1CDBB23033DAB20C23FB185A7042
:100C30007B68181C5E4900F0E9FF031C181C0A21A0
:100C400001F0CAF80B1CDBB23033DAB20C23FB180C
:100C50009A707B68181C574900F0D8FF031C181CB9
:100C60000A2101F0B9F80B1CDBB23033DAB20C23E5
:100C7000FB18DA707B68181C4F4900F0C7FF031C93
:100C8000181C0A2101F0A8F80B1CDBB23033DAB2D1
:100C90000C23FB181A717B68181CFA23990000F0CA
:100CA000B5FF031C181C0A2101F096F80B1CDBB2DF
:100CB0003033DAB20C23FB185A717B68181C64219C
:100CC00000F0A4FF031C181C0A2101F085F80B1C7E
:100CD000DBB23033DAB20C23FB189A717B68181C34
:100CE0000A2100F093FF031C181C0A2101F074F87C
:100CF0000B1CDBB23033DAB20C23FB18DA717B68E1
:100D0000181C0A2101F068F80B1CDBB23033DAB290
:100D10000C23FB181A721E23FB1809221A701923C0
:100D2000FB181B78012B19D0022B2BD0002B4ED196
:100D30001B23FB1819781E23FB181A78131C9B071A
:100D40009B1A9B009B1A8033994204DC1A23FB18E0
:100D50001B78782B01D9FF2384E038E01B23FB1894
:100D60001A781E23FB181B780A2149424B43803313
:100D70009A4204DC1A23FB181B78702B01D9FF233D
:100D800070E024E01B23FB181A781E23FB181B7845
:100D9000191C1B01CB1A80339A4204DC1A23FB185E
:100DA0001B78682B12D9FF235CE0C0467F96980021
:100DB00040420F00A086010010270000FFE0F5056B
:100DC00080969800FFC99A3B00E1F505C0461D23B7
:100DD000FB181B78012B04D13B682D20191CFFF751
:100DE000ADF91C23FB181B785BB2002B19DD1F2308
:100DF000FB1800221A700BE03B683020191CFFF72B
:100E00009DF91F23FB181A781F23FB1801321A7053
:100E10001F23FB181A781C23FB181B785BB29A421D
:100E2000EADB1F23FB1800221A7012E01F23FB18B5
:100E30001B780C22BA18D35C9AB23B68101C191CA0
:100E4000FFF77CF91F23FB181A781F23FB180132C8
:100E50001A701F23FA181E23FB1812781B789A4267
:100E6000E4D300235BB2181CBD4608B080BDC04669
:100E700080B586B000AF786039607868002100F0F6
:100E8000C9FF031E09D01323FB1801221A707B68C7
:100E90008022120653407B6003E01323FB180022DC
:100EA0001A70786801F048FB031CFB601323FB18E1
:100EB0001B78002B07D0FB685A423B68101C191C9A
:100EC000FFF784FB05E0FA683B68101C191CFFF76C
:100ED0007DFB3B685B79002B54D0F86801F04CFB3C
:100EE000031C7868191C01F0A9F9031CBB603B685E
:100EF0005B79052B3BD89A00254BD3181B689F467E
:100F0000B868244901F068F8031C181C01F014FBB0
:100F1000031C7B612BE0B8681F4901F05DF8031CDE
:100F2000181C01F009FB031C7B6120E0B8681B4919
:100F300001F052F8031C181C01F0FEFA031C7B613F
:100F400015E0B868164901F047F8031C181C01F0B9
:100F5000F3FA031C7B610AE0B868124901F03CF81F
:100F6000031C181C01F0E8FA031C7B61C0463B68B7
:100F70002E20191CFFF7E2F87A693B68101C191C37
:100F8000FFF724FB00235BB2181CBD4606B080BDF2
:100F9000D8280008000020410000C84200007A4420
:100FA00000401C460050C34780B584B000AF786055
:100FB000074B1B68FB6000E0C046054B1A68FB68E6
:100FC000D21A7B689A42F7D3BD4604B080BDC046B2
:100FD0001400002080B582B000AF021CFB1D1A7007
:100FE000BB1D0A1C1A70BB1D1B78002B06D1902359
:100FF000DB05181C042100F00DFD05E09023DB0546
:10100000181C042100F014FD094AFB1D1B78101C5C
:10101000191C00F07DFBC046054B181C802100F018
:101020008DFB031E012BF7D0BD4602B080BDC0462C
:101030000030014080B582B000AF021CBB1D1A8099
:101040007B1D0A1C1A707B1D1B78002B06D1902378
:10105000DB05181C042100F0DDFC05E09023DB0516
:10106000181C042100F0E4FCBB1D1B881B0A9BB26A
:10107000DBB2114A101C191C00F04AFBC0460E4B93
:10108000181C802100F05AFB031E012BF7D0BB1D5A
:101090001B88DBB2084A101C191C00F039FBC04643
:1010A000054B181C802100F049FB031E012BF7D0D3
:1010B000BD4602B080BDC04600300140B0B582B030
:1010C00000AF051C0C1C101C191CFB1D2A1C1A70DF
:1010D000BB1D221C1A707B1D021C1A703B1D0A1CB2
:1010E0001A702A200121FFF775FF00200021FFF769
:1010F00071FFFB1D1B78181C0021FFF76BFF002000
:101100000021FFF767FF7B1D1B78181C0021FFF7EC
:1011100061FF2B200121FFF75DFF00200021FFF779
:1011200059FFBB1D1B782033DBB2181C0021FFF7D1
:1011300051FF00200021FFF74DFF3B1D1B7820339E
:10114000DBB2181C0021FFF745FF2C200121FFF71F
:1011500041FFBD4602B0B0BD80B584B000AF021CF7
:10116000BB1D1A80002000217F227F23FFF7A6FFEE
:101170000E23FB1800221A801DE00C23FB1800220E
:101180001A800CE0BB1D1B88181C0021FFF752FFC2
:101190000C23FB181A880C23FB1801321A800C232D
:1011A000FB181B887F2BEDD90E23FB181A880E2302
:1011B000FB1801321A800E23FB181B887F2BDCD909
:1011C000BD4604B080BDC04680B500AF024B181CC0
:1011D000FFF7C2FFBD4680BDFFFF000080B582B0B3
:1011E00000AF021CFB1D1A70FB1D1B78002B04D1E5
:1011F00020200121FFF7EEFE03E021200121FFF76F
:10120000E9FEBD4602B080BD80B500AF80239B02E1
:10121000181C0121FEF756FF80235B01181C0121D9
:10122000FEF76EFF6B4B6C4A1A606A4B01221A7113
:10123000684B00229A71674B0022DA71654B0122DC
:101240005A719023DA05634B101C191C00F050FBF7
:10125000604BA0221A605F4B02221A719023DA05BC
:101260005C4B101C191C00F043FB9023DB05181C81
:101270000721002200F0EAFB9023DB05181C052162
:10128000002200F0E3FB554B00229A81534B0022D1
:101290001A81524B0022DA80504BE022D2009A8011
:1012A0004E4B0022DA814D4B822252005A804B4B2A
:1012B000802292005A814A4A484B101C191C00F0A7
:1012C00085F9474B181C012100F002FA9023DB0539
:1012D000181C022100F0ACFB1420FFF765FE9023E0
:1012E000DB05181C022100F095FB1420FFF75CFEC3
:1012F0009023DB05181C012100F09AFB9023DB05ED
:10130000181C102100F086FB01200121FFF762FE6E
:1013100011200121FFF75EFE1420FFF745FE262075
:101320000121FFF757FE04200021FFF753FEC020E4
:101330000121FFF74FFE1F200021FFF74BFEC120C8
:101340000121FFF747FE00200021FFF743FEC220E6
:101350000121FFF73FFE00200021FFF73BFE0720A1
:101360000021FFF737FEC3200121FFF733FE0020E5
:101370000021FFF72FFE07200021FFF72BFEC520DD
:101380000121FFF727FE24200021FFF723FEC820BC
:101390000021FFF71FFE38200121FFF71BFE3A2036
:1013A0000121FFF717FE05200021FFF713FE36206D
:1013B0000121FFF70FFE08200021FFF70BFE292077
:1013C0000121FFF707FE0020FFF708FFFFF7FCFEF3
:1013D000BD4680BD2C00002017080000180000202A
:1013E00000300140B0B582B000AF021C3960FB1D77
:1013F0001A70FB1D1B787F2B2FD92D4CFB1D1B78E2
:101400001A1C0F231340083B9908294AFB1D1B781F
:10141000181C0F230340083B9B0806339B00D3187E
:101420005B68FA1D1278101C03220240D200101CC7
:10143000FF228240D2431A403B689B01FF200340B9
:10144000F81D0078051C03202840C00083401A4383
:101450008B1D9B00E3185A6026E0164CFB1D1B7881
:101460005BB29B081349FA1D127852B29208C0323F
:1014700092005258F91D0978081C03210140C90047
:10148000081CFF218140C94311403A689201FF20A6
:101490000240F81D0078051C03202840C00082404F
:1014A0000A43C0339B001A51BD4602B0B0BDC046CE
:1014B00000ED00E000E100E080B582B000AF7860B0
:1014C0007B680E4A934201D9012312E00C4B7A68E3
:1014D0001202120A013A5A6001235B42181C0321CE
:1014E000FFF780FF064B00229A60054B07221A6027
:1014F0000023181CBD4602B080BDC046FFFFFF00A0
:1015000010E000E080B500AF034B1B685A1C024B93
:101510001A60BD4680BDC0461400002080B500AFF3
:10152000134B1B68181CFA23990000F0DFFA031C08
:10153000181CFFF7C1FFFFF767FEFFF745FE0D4BD5
:1015400001221A700B4B00225A700A4B00229A702B
:10155000084B0022DA70074B1F22DA80054B00226D
:101560001A81054A034B101C191CFEF765FFFEE7A4
:101570000000002034000020F02800080C488546B8
:10158000002103E00B4B5B58435004310A480B4BDE
:1015900042189A42F6D30A4A02E00023136004324A
:1015A000084B9A42F9D300F0EDF8FFF7B7FFFEE7DA
:1015B000002000203829000800000020140000202E
:1015C0001400002040000020FEE7000080B584B039
:1015D00000AF786039600E23FB1800221A800E23BA
:1015E000FB187A6812881A800E23FB180E22BA188C
:1015F0001188C12292010A401A803B681A883B6810
:10160000DB8913439AB23B68DB8813439AB23B6889
:101610001B8913439AB23B685B8913439AB23B68B8
:101620009B89134399B20E23FB180E22BA18128815
:101630000A431A807B680E22BA1812881A800E2379
:10164000FB187A6892881A800E23FB180E22BA18AB
:1016500012881D490A401A803B6899880E23FB189E
:101660000E22BA1812880A431A807B680E22BA1812
:1016700012889A803B681A8A7B681A820E23FB18AC
:101680007A6812881A800E23FB180E22BA18128864
:1016900004218A431A803B6859880E23FB180E22C6
:1016A000BA1812880A431A807B680E22BA18128868
:1016B0001A807B689B8B9BB2044A13409AB27B686A
:1016C0009A83BD4604B080BDFFF0FFFFFFF7FFFF28
:1016D00080B582B000AF78600A1CFB1C1A70FB1C3E
:1016E0001B78002B08D07B681B889BB240221343D9
:1016F0009AB27B681A8007E07B681B889BB2402205
:1017000093439AB27B681A80BD4602B080BDC04642
:1017100080B584B000AF78600A1CFB1C1A700023EF
:10172000FB607B68FB60FB680C33FB60FB68FA1CAA
:1017300012781A70BD4604B080BDC04680B584B032
:1017400000AF78600A1CBB1C1A800F23FB18002214
:101750001A707B681B899BB2BA1C128813409BB21B
:10176000002B04D00F23FB1801221A7003E00F2373
:10177000FB1800221A700F23FB181B78181CBD469B
:1017800004B080BD80B500AF1B4B1B4A126801211D
:101790000A431A60184B184A526818490A405A609E
:1017A000154B154A126816490A401A60124B124A24
:1017B000126814490A401A600F4B0F4A52681249C6
:1017C0000A405A600C4B0C4AD26A0F218A43DA62F3
:1017D000094B094A126B0D490A401A63064B064A27
:1017E000526B01218A435A63034B00229A6000F036
:1017F0000FF8BD4680BDC046001002400CB8FFF88F
:10180000FFFFF6FEFFFFFBFFFFFFC0FFACFEFFFF89
:1018100080B582B000AF00237B6000233B60314B7A
:10182000304A1268802149020A431A602D4B1A6817
:1018300080239B0213403B607B6801337B603B68E5
:10184000002B04D17A68A023DB019A42EED1254B0C
:101850001A6880239B02134002D001233B6001E001
:1018600000233B603B68012B38D11F4B11221A60CB
:101870001C4B1C4A52685A601A4B1A4A52685A60EA
:10188000184B184A526819490A405A60154B154AB4
:101890005268882149030A435A60124B114A126860
:1018A000802149040A431A60C0460E4B1A688023FF
:1018B0009B041340F9D00B4B0A4A526803218A4318
:1018C0005A60084B074A526802210A435A60C046D0
:1018D000044B5B680C221340082BF9D1BD4602B0C3
:1018E00080BDC0460010024000200240FFFFC0FF44
:1018F00080B586B000AF7860396000237B6100233B
:101900003B610023FB6000237B617CE07B6901225B
:101910009A40131C3B613B681B683A691340FB60AB
:10192000FA683B699A426BD13B681B79012B03D063
:101930003B681B79022B34D17B689B687A69520023
:10194000111C03228A40D2431A407B689A607B684C
:101950009A683B685B79191C7B695B0099400B1C9A
:101960001A437B689A607B689B889BB27A6992B2C3
:10197000111C01228A4092B2D24392B213409AB211
:101980007B689A807B689B889AB23B689B79191C1C
:101990007B699BB299400B1C9BB213439AB27B6844
:1019A0009A807B681B687A695200111C03228A4066
:1019B000D2431A407B681A607B681A683B681B79BF
:1019C000191C7B695B0099400B1C1A437B681A60E9
:1019D0007B68DB687A6992B25200032191400A1C4D
:1019E000D2431A407B68DA607B68DA683B68DB794F
:1019F000191C7B695B0099400B1C1A437B68DA60F9
:101A00007B6901337B617B690F2B00D87EE7BD4684
:101A100006B080BD80B582B000AF78600A1CBB1CE8
:101A20001A80BB1C1A887B689A61BD4602B080BDD3
:101A300080B582B000AF78600A1CBB1C1A807B683E
:101A4000BA1C12881A85BD4602B080BD80B584B02C
:101A500000AF7860081C111CBB1C021C1A807B1C88
:101A60000A1C1A700023FB600023BB607B1C1B78E0
:101A7000BA1C128807210A4092009340FB60BB1CED
:101A80001B88DB089BB2181CBB1C1B88DB089BB2A5
:101A90001A1C7B6808329200D358BA1C128807219E
:101AA0000A409200111C0F228A40D2431A40111C96
:101AB0007B68021C08329200D150BB1C1B88DB08DB
:101AC0009BB21A1C7B6808329200D258FB68134301
:101AD000BB60BB1C1B88DB089BB21A1C7B680832EE
:101AE0009200B968D150BD4604B080BD00224308C1
:101AF0008B4274D303098B425FD3030A8B4244D3D6
:101B0000030B8B4228D3030C8B420DD3FF22090217
:101B100012BA030C8B4202D31212090265D0030BD6
:101B20008B4219D300E0090AC30B8B4201D3CB03CC
:101B3000C01A5241830B8B4201D38B03C01A52410E
:101B4000430B8B4201D34B03C01A5241030B8B4210
:101B500001D30B03C01A5241C30A8B4201D3CB02FB
:101B6000C01A5241830A8B4201D38B02C01A5241E0
:101B7000430A8B4201D34B02C01A5241030A8B42E3
:101B800001D30B02C01A5241CDD2C3098B4201D3FB
:101B9000CB01C01A524183098B4201D38B01C01A79
:101BA000524143098B4201D34B01C01A52410309F0
:101BB0008B4201D30B01C01A5241C3088B4201D39F
:101BC000CB00C01A524183088B4201D38B00C01A4C
:101BD000524143088B4201D34B00C01A5241411A73
:101BE00000D20146524110467047FFE701B5002080
:101BF00000F0FCF802BDC0460029F7D003B5FFF79E
:101C000075FF0EBC4243891A1847C04603460B4372
:101C10007FD4002243088B4274D303098B425FD3E5
:101C2000030A8B4244D3030B8B4228D3030C8B4211
:101C30000DD3FF22090212BA030C8B4202D31212F7
:101C4000090265D0030B8B4219D300E0090AC30BCC
:101C50008B4201D3CB03C01A5241830B8B4201D379
:101C60008B03C01A5241430B8B4201D34B03C01A62
:101C70005241030B8B4201D30B03C01A5241C30ADA
:101C80008B4201D3CB02C01A5241830A8B4201D34B
:101C90008B02C01A5241430A8B4201D34B02C01A35
:101CA0005241030A8B4201D30B02C01A5241CDD2DA
:101CB000C3098B4201D3CB01C01A524183098B4225
:101CC00001D38B01C01A524143098B4201D34B010E
:101CD000C01A524103098B4201D30B01C01A524171
:101CE000C3088B4201D3CB00C01A524183088B42F8
:101CF00001D38B00C01A524143088B4201D34B00E1
:101D0000C01A5241411A00D2014652411046704752
:101D10005DE0CA0F00D04942031000D34042534057
:101D200000229C4603098B422DD3030A8B4212D317
:101D3000FC22890112BA030A8B420CD38901921149
:101D40008B4208D3890192118B4204D389013AD086
:101D5000921100E08909C3098B4201D3CB01C01A5B
:101D6000524183098B4201D38B01C01A524143096E
:101D70008B4201D34B01C01A524103098B4201D35C
:101D80000B01C01A5241C3088B4201D3CB00C01AC9
:101D9000524183088B4201D38B00C01A5241D9D2E1
:101DA00043088B4201D34B00C01A5241411A00D262
:101DB0000146634652415B10104601D34042002B5E
:101DC00000D54942704763465B1000D3404201B5DD
:101DD000002000F00BF802BD0029F8D003B5FFF792
:101DE00015FF0EBC4243891A1847C0467047C046CB
:101DF0008446081C6146FFE71FB500F0A7F80028DD
:101E000001D40021C8421FBD10B500F02BF840429C
:101E1000013010BD10B500F099F8002801DB00205A
:101E200010BD012010BDC04610B500F08FF800288D
:101E300001DD002010BD012010BDC04610B500F02E
:101E40003BF8002801DC002010BD012010BDC04679
:101E500010B500F031F8002801DA002010BD012093
:101E600010BDC046430270B542004C005D0AC30F6E
:101E70004802120E460A240EC90FFF2A05D0FF2C75
:101E800008D00120A2420BD070BD0120002DFBD153
:101E9000FF2CF6D10120002EF6D10120A242F3D171
:101EA000B542F1D18B4205D0002AEDD1281C431E4A
:101EB0009841E9E70020E7E7F0B543024D024A0008
:101EC00044005E0A240EC30F6D0A120EC90FFF2CC8
:101ED0000DD0FF2A31D0002C0DD177427741002A56
:101EE00023D1002D21D10020002F0BD107E0002E9F
:101EF00028D1FF2A21D0002A05D08B4207D0584292
:101F000001231843F0BD002DF9D08B42F7D1944244
:101F1000F5DC04DBAE42F2D80020AE42F2D25842E9
:101F2000434101205B421843ECE7002FE5D04842D3
:101F30004141012049420843E4E7002D02D1002C31
:101F4000CBD0DAE702204042DCE7C0464302F0B5DE
:101F500042004C005E0AC30F4802120E450A240ECE
:101F6000C90FFF2A0FD0FF2C1AD0002A10D17742B8
:101F70007741002C29D0002F17D048424141012041
:101F8000494208430BE00220002E08D1FF2C07D065
:101F9000002C0AD1002D08D1584201231843F0BD6E
:101FA0000220002DFBD1002AE1D08B42F4D1A242C5
:101FB000F2DC04DBAE42EFD80020AE42EFD2584252
:101FC000434101205B421843E9E7002DD3D10020B3
:101FD000002FE4D1E0E7C046F0B55F4656464D46D7
:101FE0004446F0B445024600C40F83B00F1C6D0A8E
:101FF000360EA34645D0FF2E25D080231B041D435B
:1020000000239A46ED007F3E01937B025B0A9846CF
:102010007800FB0F000E994640D0FF2838D080236F
:1020200042461B041343DB00984600237F384A4690
:10203000019F30186240411C1F430F2F69D87D4E0D
:10204000BF00F659B746002D45D108230193063B42
:102050009A46DAE793465346022B2FD15B4601247A
:1020600000251C40FF236D02DB056D0AE4071D43BC
:102070002543281C03B03CBC90469946A246AB467B
:10208000F0BD002D2CD104230193033B9A46BCE7FD
:1020900043465A4253410322D31AC8E7424601231A
:1020A000002AC4D0404600F0AFFA4246431F9A408F
:1020B00076235B42181A90460023B8E7032B00D121
:1020C000ADE0012B00D08CE05B4654461C40E4B2EE
:1020D00000230025C7E70C230193093B9A4694E7A8
:1020E000281C00F091FA7626431F9D40002376427B
:1020F000361A01939A4688E780250024ED03FF23D2
:10210000B1E74546CB469A46A5E7454693469A46EB
:10211000A1E743462C041B0C9C46230C4446260492
:102120001C1C360C2F0C7443351C66467D437343D0
:102130007743EB18260C9E19B54203D980235B0226
:102140009C46674424043304240C1B199D016C1E17
:10215000A5419B0E360C2B43BD19AD011D432B0130
:1021600004D5012368081D400543081C031C7F3368
:10217000002B2CDD690704D00F212940042900D051
:102180000435290103D52C4B1D40031C8033FE2B45
:1021900017DD0124FF231440002564E78020C003DD
:1021A000054209D04346034206D1454605436D0228
:1021B0006D0A4C46FF2356E705436D026D0AFF2367
:1021C00051E70124AD016D0ADBB214404BE77E23D9
:1021D0005B421B1A1B2B07DD012400231440002542
:1021E00041E7081C5A46C1E79E30291C8540D9406A
:1021F000681E85410D436B0704D00F232B40042B31
:1022000000D004356B0104D50124012314400025BE
:1022100029E70124AD016D0A1440002323E7802340
:10222000DB031D4301245B466D0223401C1C6D0A29
:10223000FF2318E7F8280008FFFFFFF7F8B54A006A
:10224000430244004D02C00F240E061C9B09120ECF
:10225000C90FAD09FF2A00D175E0012779408842F6
:1022600050D0A01A002800DC8FE0002A1ED1002DDB
:1022700000D075E05A0704D00F221A40042A00D07B
:10228000043380220120D2041A403040002A32D088
:102290000134FF2C00D184E09B015B0AE4B25B02B5
:1022A000E4055B0A2343C0071843F8BDFF2CE1D0C7
:1022B0008022D20415431B287ADD01255B1B5A01BD
:1022C0005DD59B019F09381C00F09EF905388740B9
:1022D000844269DC001B1F243A1C431C201ADA408C
:1022E0008740131C7C1EA74100243B43C2E7131EFA
:1022F00045D100230020DB08FF2C28D05B025B0ABD
:10230000E4B2CCE7A11A00295BDD002A2ED0FF2C15
:10231000B0D08022D20415431B2974DC2F1C20224C
:10232000CF40511A8D40691E8D413D435B195A01C2
:1023300025D50134FF2C74D001217E4A1940134069
:102340005B080B4396E7002D00D088E785E7002B5C
:1023500027D08022D20313435B025B0AFF249EE74F
:1023600001380028AAD0FF2CA5D183E7002D00D189
:1023700080E701390029D9D0FF2CCDD17AE75A075F
:1023800000D079E701203040B5E7002825D1621C54
:10239000D2B2012A55DD5F1B7A012DD5EF1A0E1C32
:1023A00091E7FF2400237AE7624B241A3B4061E760
:1023B000291C2022C140101A8540681E85410D430A
:1023C0007CE7002946D1621CD1B201292BDDFF2A0E
:1023D00026D0EB185B08141C4CE7002C15D0FF2A04
:1023E0001AD08024E404404223431B284DDD0123FE
:1023F000EB1A141C0E1C62E7002F00D063E70023C9
:102400000020002477E7012590E7002B39D0C04356
:102410000028EDD0FF2AE8D12B1CFF240E1C29E751
:10242000FF24002367E7002C5AD1002B7FD0002D1A
:1024300000D11FE75B195A01A1D53E4A0134134070
:1024400018E7002C15D1002B2FD1002D5ED02B1CAE
:102450000E1C0FE7002C21D1002B54D0C9430029BA
:1024600004D0FF2A4CD01B2958DD01235B19141C12
:102470005DE7002B23D1002D4BD02B1C0E1CFF241D
:10248000F8E62B1C141C0E1CF4E61E1C2024C6406F
:10249000201A8340581E83413343A9E7FF2A2FD0D7
:1024A0008024E40449422343DDE7002D00D1E1E626
:1024B0005A1B500100D41AE7EB1A0E1CDAE6FF246F
:1024C000002D00D1D6E68022DB08D203134204D0CF
:1024D000ED08154201D12B1C0E1CDB00FF24C9E6C0
:1024E000002B0DD0FF24002D00D1C3E68022DB0895
:1024F000D2031342F1D0ED081542EED12B1CECE7CC
:102500002B1CFF24B6E62B1C141CB3E6231C002056
:10251000F1E6802300209B04FF24ECE61F1C20240E
:10252000CF40611A8B40591E8B413B439EE72B1CC9
:10253000A0E6C046FFFFFFFB4202510A4200C30F64
:10254000120E00207E2A0DDD9D2A0CDC8020000466
:102550000143952A0ADC9620821AD1400A1C58426F
:102560004240D0187047034A9818FBE7963A9140CA
:102570000A1CF4E7FFFFFF7F70B5041E39D0C50FBA
:1025800000D04442201C00F03FF89E23261C1B1A5A
:10259000962B07DC082801DD083884406402640AB1
:1025A000D8B21EE0992B0ADD0522211C121AD14057
:1025B0000A1C011C1B318E40711E8E4116430528DA
:1025C00001DD421F96400F4C3440720704D00F22A9
:1025D0001640042E00D0043462010ED4A401640A13
:1025E000D8B26402C005640AED0704432C43201CE2
:1025F00070BD002500200024F3E7024B1C409F2300
:102600001B1AEBE7FFFFFFFB1C2101231B04984271
:1026100001D3000C10391B0A984201D3000A083973
:102620001B09984201D30009043902A2105C40182A
:102630007047C046040302020101010100000000CE
:102640000000000010B5830727D00378002B26D0A8
:10265000031C032102E01A78002A1CD001330B422C
:10266000F9D119680F4A104C8A188A4322420FD1B7
:10267000043319680B4A8A188A43224208D104336A
:102680001968084A8A188A432242F1D000E00133CF
:102690001A78002AFBD1181A10BD031CE1E70020AC
:1026A000FAE7C046FFFEFEFE80808080000000004A
:1026B0000000005F00000007000700147F147F1473
:1026C000242A7F2A122313086462364955225000B7
:1026D00005030000001C2241000041221C001408D8
:1026E0003E081408083E080800503000000808089A
:1026F0000808006060000020100804023E514945AF
:102700003E00427F400042615149462141454B31E4
:102710001814127F1027454545393C4A4949300174
:10272000710905033649494936064949291E0036CB
:10273000360000005636000008142241001414141C
:10274000141400412214080201510906324979414A
:102750003E7E1111117E7F494949363E4141412259
:102760007F4141221C7F494949417F090909013EB6
:102770004149497A7F0808087F00417F4100204095
:10278000413F017F081422417F404040407F020CBE
:10279000027F7F0408107F3E4141413E7F090909C5
:1027A000063E4151215E7F09192946464949493172
:1027B00001017F01013F4040403F1F2040201F3F5B
:1027C0004038403F631408146307087008076151DC
:1027D000494543007F414100020408102000414167
:1027E0007F00040201020440404040400001020416
:1027F0000020545454787F4844443838444444209A
:10280000384444487F3854545418087E0901020C57
:102810005252523E7F0804047800447D400020401C
:10282000443D007F1028440000417F40007C041894
:1028300004787C0804047838444444387C14141424
:1028400008081414187C7C080404084854545420C4
:10285000043F4440203C4040207C1C2040201C3C45
:102860004030403C44281028440C5050503C4464B4
:10287000544C44000836410000007F0000004136FF
:10288000080010080810087846414678FF0000004C
:102890000000000000001F031F06E308500B4D0D51
:1028A000C70EB00FFF0FB00FC70E4D0D500BE30852
:1028B0001F061F030000E1FCE1F91DF7B0F4B3F2BD
:1028C00039F150F001F050F039F1B3F2B0F41DF7E6
:1028D000E1F9E1FC00001F036E0F0008000F000883
:1028E000160F00082C0F0008420F0008580F0008B0
:1028F00048656C6C6F210000122100080A21000855
:102900000A21000802210008542000085420000871
:10291000F82000080221000854200008F8200008D0
:102920005420000802210008562000085620000804
:08293000562000089C2100085C
:10293800006CDC020000000000000000010203043B
:04294800060708096D
:0400000508000000EF
:00000001FF
